{
  "contractName": "ArtToken",
  "abi": [
    {
      "constant": true,
      "inputs": [
        {
          "name": "",
          "type": "uint256"
        }
      ],
      "name": "tokenApprovals",
      "outputs": [
        {
          "name": "",
          "type": "address"
        }
      ],
      "payable": false,
      "stateMutability": "view",
      "type": "function"
    },
    {
      "constant": true,
      "inputs": [
        {
          "name": "",
          "type": "address"
        },
        {
          "name": "",
          "type": "uint256"
        }
      ],
      "name": "ownedTokens",
      "outputs": [
        {
          "name": "",
          "type": "uint256"
        }
      ],
      "payable": false,
      "stateMutability": "view",
      "type": "function"
    },
    {
      "constant": true,
      "inputs": [
        {
          "name": "",
          "type": "uint256"
        }
      ],
      "name": "tokenOwners",
      "outputs": [
        {
          "name": "",
          "type": "address"
        }
      ],
      "payable": false,
      "stateMutability": "view",
      "type": "function"
    },
    {
      "inputs": [
        {
          "name": "initialSupply",
          "type": "uint256"
        }
      ],
      "payable": false,
      "stateMutability": "nonpayable",
      "type": "constructor"
    },
    {
      "anonymous": false,
      "inputs": [
        {
          "indexed": true,
          "name": "_from",
          "type": "address"
        },
        {
          "indexed": true,
          "name": "_to",
          "type": "address"
        },
        {
          "indexed": false,
          "name": "_tokenId",
          "type": "uint256"
        }
      ],
      "name": "Transfer",
      "type": "event"
    },
    {
      "constant": true,
      "inputs": [],
      "name": "name",
      "outputs": [
        {
          "name": "",
          "type": "string"
        }
      ],
      "payable": false,
      "stateMutability": "view",
      "type": "function"
    },
    {
      "constant": true,
      "inputs": [],
      "name": "symbol",
      "outputs": [
        {
          "name": "",
          "type": "string"
        }
      ],
      "payable": false,
      "stateMutability": "view",
      "type": "function"
    },
    {
      "constant": true,
      "inputs": [],
      "name": "totalSupply",
      "outputs": [
        {
          "name": "totalSupply",
          "type": "uint256"
        }
      ],
      "payable": false,
      "stateMutability": "view",
      "type": "function"
    },
    {
      "constant": true,
      "inputs": [
        {
          "name": "_owner",
          "type": "address"
        }
      ],
      "name": "balanceOf",
      "outputs": [
        {
          "name": "balance",
          "type": "uint256"
        }
      ],
      "payable": false,
      "stateMutability": "view",
      "type": "function"
    },
    {
      "constant": true,
      "inputs": [
        {
          "name": "_tokenID",
          "type": "uint256"
        }
      ],
      "name": "ownerOf",
      "outputs": [
        {
          "name": "owner",
          "type": "address"
        }
      ],
      "payable": false,
      "stateMutability": "view",
      "type": "function"
    },
    {
      "constant": true,
      "inputs": [
        {
          "name": "_owner",
          "type": "address"
        }
      ],
      "name": "listOfTokens",
      "outputs": [
        {
          "name": "listOfTokens",
          "type": "uint256[]"
        }
      ],
      "payable": false,
      "stateMutability": "view",
      "type": "function"
    },
    {
      "constant": true,
      "inputs": [],
      "name": "messageSender",
      "outputs": [
        {
          "name": "",
          "type": "address"
        }
      ],
      "payable": false,
      "stateMutability": "view",
      "type": "function"
    },
    {
      "constant": true,
      "inputs": [],
      "name": "messageSenderBalance",
      "outputs": [
        {
          "name": "balance",
          "type": "uint256"
        }
      ],
      "payable": false,
      "stateMutability": "view",
      "type": "function"
    },
    {
      "constant": false,
      "inputs": [
        {
          "name": "_to",
          "type": "address"
        }
      ],
      "name": "mintNFT",
      "outputs": [
        {
          "name": "_tokenID",
          "type": "uint256"
        }
      ],
      "payable": false,
      "stateMutability": "nonpayable",
      "type": "function"
    },
    {
      "constant": false,
      "inputs": [
        {
          "name": "_from",
          "type": "address"
        },
        {
          "name": "tokenID",
          "type": "uint256"
        }
      ],
      "name": "popToken",
      "outputs": [],
      "payable": false,
      "stateMutability": "nonpayable",
      "type": "function"
    },
    {
      "constant": true,
      "inputs": [],
      "name": "balanceGenesis",
      "outputs": [
        {
          "name": "genesisBalance",
          "type": "uint256"
        }
      ],
      "payable": false,
      "stateMutability": "view",
      "type": "function"
    },
    {
      "constant": false,
      "inputs": [
        {
          "name": "_to",
          "type": "address"
        },
        {
          "name": "_tokenID",
          "type": "uint256"
        }
      ],
      "name": "transfer",
      "outputs": [],
      "payable": false,
      "stateMutability": "nonpayable",
      "type": "function"
    }
  ],
  "bytecode": "0x60606040526103e86000556000600155341561001a57600080fd5b604051602080610d0b8339810160405280805190602001909190505080600260003373ffffffffffffffffffffffffffffffffffffffff1673ffffffffffffffffffffffffffffffffffffffff168152602001908152602001600020819055508060008190555050610c7a806100916000396000f3006060604052600436106100db576000357c0100000000000000000000000000000000000000000000000000000000900463ffffffff16806306fdde03146100e0578063165622f91461016e57806318160ddd146101975780634d5e0ccc146101c057806354ba0f271461024e5780636352211e1461029b57806370a08231146102fe57806395d89b411461034b578063a9059cbb146103d9578063acdeb5b91461041b578063adc347601461047e578063d67bdd25146104c0578063e149f03614610515578063f56ed7771461056b578063f8a14f4614610594575b600080fd5b34156100eb57600080fd5b6100f36105f7565b6040518080602001828103825283818151815260200191508051906020019080838360005b83811015610133578082015181840152602081019050610118565b50505050905090810190601f1680156101605780820380516001836020036101000a031916815260200191505b509250505060405180910390f35b341561017957600080fd5b61018161063a565b6040518082815260200191505060405180910390f35b34156101a257600080fd5b6101aa610695565b6040518082815260200191505060405180910390f35b34156101cb57600080fd5b6101f7600480803573ffffffffffffffffffffffffffffffffffffffff1690602001909190505061069e565b6040518080602001828103825283818151815260200191508051906020019060200280838360005b8381101561023a57808201518184015260208101905061021f565b505050509050019250505060405180910390f35b341561025957600080fd5b610285600480803573ffffffffffffffffffffffffffffffffffffffff1690602001909190505061073b565b6040518082815260200191505060405180910390f35b34156102a657600080fd5b6102bc6004808035906020019091905050610810565b604051808273ffffffffffffffffffffffffffffffffffffffff1673ffffffffffffffffffffffffffffffffffffffff16815260200191505060405180910390f35b341561030957600080fd5b610335600480803573ffffffffffffffffffffffffffffffffffffffff1690602001909190505061084d565b6040518082815260200191505060405180910390f35b341561035657600080fd5b61035e610896565b6040518080602001828103825283818151815260200191508051906020019080838360005b8381101561039e578082015181840152602081019050610383565b50505050905090810190601f1680156103cb5780820380516001836020036101000a031916815260200191505b509250505060405180910390f35b34156103e457600080fd5b610419600480803573ffffffffffffffffffffffffffffffffffffffff169060200190919080359060200190919050506108d9565b005b341561042657600080fd5b61043c6004808035906020019091905050610aeb565b604051808273ffffffffffffffffffffffffffffffffffffffff1673ffffffffffffffffffffffffffffffffffffffff16815260200191505060405180910390f35b341561048957600080fd5b6104be600480803573ffffffffffffffffffffffffffffffffffffffff16906020019091908035906020019091905050610b1e565b005b34156104cb57600080fd5b6104d3610b22565b604051808273ffffffffffffffffffffffffffffffffffffffff1673ffffffffffffffffffffffffffffffffffffffff16815260200191505060405180910390f35b341561052057600080fd5b610555600480803573ffffffffffffffffffffffffffffffffffffffff16906020019091908035906020019091905050610b2a565b6040518082815260200191505060405180910390f35b341561057657600080fd5b61057e610b5b565b6040518082815260200191505060405180910390f35b341561059f57600080fd5b6105b56004808035906020019091905050610ba2565b604051808273ffffffffffffffffffffffffffffffffffffffff1673ffffffffffffffffffffffffffffffffffffffff16815260200191505060405180910390f35b6105ff610bd5565b6040805190810160405280600e81526020017f417274546f6b656e20746f6b656e000000000000000000000000000000000000815250905090565b60006002600073627306090abab3a6e1400e9345bc60c78a8bef5773ffffffffffffffffffffffffffffffffffffffff1673ffffffffffffffffffffffffffffffffffffffff16815260200190815260200160002054905090565b60008054905090565b6106a6610be9565b600560008373ffffffffffffffffffffffffffffffffffffffff1673ffffffffffffffffffffffffffffffffffffffff16815260200190815260200160002080548060200260200160405190810160405280929190818152602001828054801561072f57602002820191906000526020600020905b81548152602001906001019080831161071b575b50505050509050919050565b60008160036000600154815260200190815260200160002060006101000a81548173ffffffffffffffffffffffffffffffffffffffff021916908373ffffffffffffffffffffffffffffffffffffffff160217905550600560008373ffffffffffffffffffffffffffffffffffffffff1673ffffffffffffffffffffffffffffffffffffffff16815260200190815260200160002080548060010182816107e29190610bfd565b9160005260206000209001600060015490919091505550600180540160018190555060018054039050919050565b60006003600083815260200190815260200160002060009054906101000a900473ffffffffffffffffffffffffffffffffffffffff169050919050565b6000600260008373ffffffffffffffffffffffffffffffffffffffff1673ffffffffffffffffffffffffffffffffffffffff168152602001908152602001600020549050919050565b61089e610bd5565b6040805190810160405280600381526020017f4152540000000000000000000000000000000000000000000000000000000000815250905090565b6000803391508390506108eb83610810565b73ffffffffffffffffffffffffffffffffffffffff168273ffffffffffffffffffffffffffffffffffffffff1614151561092157fe5b8073ffffffffffffffffffffffffffffffffffffffff168273ffffffffffffffffffffffffffffffffffffffff161415151561095957fe5b600073ffffffffffffffffffffffffffffffffffffffff168173ffffffffffffffffffffffffffffffffffffffff161415151561099257fe5b6001600260008473ffffffffffffffffffffffffffffffffffffffff1673ffffffffffffffffffffffffffffffffffffffff16815260200190815260200160002060008282540392505081905550806003600085815260200190815260200160002060006101000a81548173ffffffffffffffffffffffffffffffffffffffff021916908373ffffffffffffffffffffffffffffffffffffffff1602179055506001600260008373ffffffffffffffffffffffffffffffffffffffff1673ffffffffffffffffffffffffffffffffffffffff168152602001908152602001600020600082825401925050819055508073ffffffffffffffffffffffffffffffffffffffff168273ffffffffffffffffffffffffffffffffffffffff167fddf252ad1be2c89b69c2b068fc378daa952ba7f163c4a11628f55a4df523b3ef856040518082815260200191505060405180910390a350505050565b60046020528060005260406000206000915054906101000a900473ffffffffffffffffffffffffffffffffffffffff1681565b5050565b600033905090565b600560205281600052604060002081815481101515610b4557fe5b9060005260206000209001600091509150505481565b6000600260003373ffffffffffffffffffffffffffffffffffffffff1673ffffffffffffffffffffffffffffffffffffffff16815260200190815260200160002054905090565b60036020528060005260406000206000915054906101000a900473ffffffffffffffffffffffffffffffffffffffff1681565b602060405190810160405280600081525090565b602060405190810160405280600081525090565b815481835581811511610c2457818360005260206000209182019101610c239190610c29565b5b505050565b610c4b91905b80821115610c47576000816000905550600101610c2f565b5090565b905600a165627a7a723058203a1900cf53bbef2a0a88396d36072c9ae1e0b131f9870d82eefeae01d6011e960029",
  "source": "pragma solidity ^0.4.19;\n\n\n/* test code\n\nArtToken.deployed().then(function(instance){return instance.balanceOf(0x627306090abab3a6e1400e9345bc60c78a8bef57);}).then(function(value){return value.toNumber()});\n\nArtToken.deployed().then(function(instance){return instance.balanceOf(0x627306090abab3a6e1400e9345bc60c78a8bef57);});\n\nArtToken.deployed().then(function(instance){return instance.mintNFT(0x627306090abab3a6e1400e9345bc60c78a8bef57);});\n\nArtToken.deployed().then(function(instance){return instance.ownerOf(1);});\n\nArtToken.deployed().then(function(instance){return instance.ownerOf(1);});\n\nArtToken.deployed().then(function(instance){return instance.messageSender();});\n\nArtToken.deployed().then(function(instance){return instance.totalSupply();}).then(function(value){return value.toNumber()});\n\n(0) 0x627306090abab3a6e1400e9345bc60c78a8bef57\n(1) 0xf17f52151ebef6c7334fad080c5704d77216b732\n(2) 0xc5fdf4076b8f3a5357c5e395ab970b5b54098fef\n(3) 0x821aea9a577a9b44299b9c15c88cf3087f3b5544\n(4) 0x0d1d4e623d10f9fba5db95830f7d3839406c6af2\n(5) 0x2932b7a2355d6fecc4b5c0b6bd44cc31df247a2e\n(6) 0x2191ef87e392377ec08e7c08eb105ef5448eced5\n(7) 0x0f4f2ac550a1b4e2280d04c21cea7ebd822934b5\n(8) 0x6330a553fc93768f612722bb8c2ec78ac90b3bbc\n(9) 0x5aeda56215b167893e80b4fe645ba6d5bab767de\n\nSimpleStorage.deployed().then(function(instance){return instance.get.call();}).then(function(value){return value.toNumber()});\n\n\n*/\n/*\n\nArtToken Token contract\nDesigned to fit the ERC 721 standard\nhttps://github.com/ethereum/eips/issues/721\n\n*/\n\n\ncontract ArtToken {\n\n\t//fixed name of the token\n\tstring constant private tokenName = \"ArtToken token\";\n\n\t//fixed symbol of the token\n\tstring constant private tokenSymbol = \"ART\";\n\n\t//fixed supply of tokens\n\tuint256 private totalTokens = 1000;\n\n    //first token ID\n    uint256 private currentTokenID = 0;\n\n    /* This creates an array with all balances */\n    mapping (address => uint256) public balanceOf;\n\n\t// Mapping from token ID to owner\n    mapping (uint256 => address) public tokenOwners;\n\n    // Mapping from token ID to approved address\n    mapping (uint256 => address) public tokenApprovals;\n\n    // Mapping from owner to list of owned token IDs\n    mapping (address => uint256[]) public ownedTokens;\n\n    //address genesisAddress = 0x627306090abab3a6e1400e9345bc60c78a8bef57;\n\n    /* Initializes contract with initial supply tokens to the creator of the contract */\n    function ArtToken  (\n        uint256 initialSupply\n        ) {\n        balanceOf[msg.sender] = initialSupply;              // Give the creator all initial tokens\n        totalTokens = initialSupply;\n    }\n\n    //returns name of token\n    function name() public constant returns (string) {\n    \treturn tokenName;\n    }\n\n    //returns symbol of token\n    function symbol() public constant returns (string) {\n    \treturn tokenSymbol;\n    }\n\n    //returns total supply of token\n    function totalSupply() constant returns (uint256 totalSupply) {\n    \treturn totalTokens;\n    }\n\n    //returns balance of an owner\n    function balanceOf(address _owner) constant returns (uint256 balance) {\n        return balanceOf[_owner];\n    }\n\n    //return the owner of a token\n    function ownerOf(uint256 _tokenID) constant returns (address owner) {\n    \treturn tokenOwners[_tokenID];\n    }\n\n    //return tokens an address owns\n    function listOfTokens(address _owner) constant returns (uint256[] listOfTokens) {\n        return ownedTokens[_owner];\n    }\n\n    //get address of message sender\n\n    function messageSender() constant returns (address) {\n    \treturn msg.sender;\n    }\n\n    //get balance of message sender\n\n    function messageSenderBalance() constant returns (uint256 balance) {\n        return balanceOf[msg.sender];\n    }\n\n    //mint a new NFT\n    function mintNFT(address _to) returns (uint256 _tokenID) {\n        //only we can mint token\n        //assert(msg.sender = genesisAddress);\n        tokenOwners[currentTokenID] = _to;\n        ownedTokens[_to].push(currentTokenID);\n        currentTokenID = currentTokenID +1;\n        return (currentTokenID -1);\n\n    }\n\n    //remove token token\n\n    function popToken(address _from, uint256 tokenID) {\n        //ownedTokens[_from].pop(tokenID);\n    }\n\n    function balanceGenesis() constant returns (uint256 genesisBalance) {\n        return balanceOf[0x627306090abaB3A6e1400e9345bC60c78a8BEf57];\n    }\n\n    function transfer(address _to, uint256 _tokenID) {\n    \taddress currentOwner = msg.sender;\n    \taddress newOwner = _to;\n    \tassert(currentOwner == ownerOf(_tokenID));\n    \tassert(currentOwner != newOwner);\n    \tassert(newOwner != address(0));\n    \tbalanceOf[currentOwner] -= 1;\n    \ttokenOwners[_tokenID] = newOwner;\n    \tbalanceOf[newOwner] += 1;\n    \tTransfer(currentOwner, newOwner, _tokenID);\n    }\n\n   event Transfer(address indexed _from, address indexed _to, uint256 _tokenId);\n\n}\n",
  "sourcePath": "/Users/Pooch/Desktop/gallery_project/art_dapp/DAPP/contracts/ArtToken.sol",
  "compiler": {
    "name": "solc",
    "version": "0.4.19+commit.c4cbbb05.Emscripten.clang"
  },
  "schemaVersion": "1.0.1",
  "updatedAt": "2018-03-01T00:11:57.842Z"
}